{
	"data": {
		"bytecode": {
			"linkReferences": {},
			"object": "608060405234801562000010575f80fd5b50620000216200003760201b60201c565b5f9081620000309190620002d8565b50620003bc565b60606040518060400160405280600b81526020017f48656c6c6f20576f726c64000000000000000000000000000000000000000000815250905090565b5f81519050919050565b7f4e487b71000000000000000000000000000000000000000000000000000000005f52604160045260245ffd5b7f4e487b71000000000000000000000000000000000000000000000000000000005f52602260045260245ffd5b5f6002820490506001821680620000f057607f821691505b602082108103620001065762000105620000ab565b5b50919050565b5f819050815f5260205f209050919050565b5f6020601f8301049050919050565b5f82821b905092915050565b5f600883026200016a7fffffffffffffffffffffffffffffffffffffffffffffffffffffffffffffffff826200012d565b6200017686836200012d565b95508019841693508086168417925050509392505050565b5f819050919050565b5f819050919050565b5f620001c0620001ba620001b4846200018e565b62000197565b6200018e565b9050919050565b5f819050919050565b620001db83620001a0565b620001f3620001ea82620001c7565b84845462000139565b825550505050565b5f90565b62000209620001fb565b62000216818484620001d0565b505050565b5b818110156200023d57620002315f82620001ff565b6001810190506200021c565b5050565b601f8211156200028c5762000256816200010c565b62000261846200011e565b8101602085101562000271578190505b6200028962000280856200011e565b8301826200021b565b50505b505050565b5f82821c905092915050565b5f620002ae5f198460080262000291565b1980831691505092915050565b5f620002c883836200029d565b9150826002028217905092915050565b620002e38262000074565b67ffffffffffffffff811115620002ff57620002fe6200007e565b5b6200030b8254620000d8565b6200031882828562000241565b5f60209050601f8311600181146200034e575f841562000339578287015190505b620003458582620002bb565b865550620003b4565b601f1984166200035e866200010c565b5f5b82811015620003875784890151825560018201915060208501945060208101905062000360565b86831015620003a75784890151620003a3601f8916826200029d565b8355505b6001600288020188555050505b505050505050565b61061780620003ca5f395ff3fe608060405234801561000f575f80fd5b506004361061003f575f3560e01c80635d3a1f9d14610043578063b860426e1461005f578063c605f76c1461007d575b5f80fd5b61005d600480360381019061005891906101e5565b61009b565b005b6100676100b0565b60405161007491906102ba565b60405180910390f35b6100856100ed565b60405161009291906102ba565b60405180910390f35b81815f91826100ab929190610514565b505050565b60606040518060400160405280600b81526020017f48656c6c6f20576f726c64000000000000000000000000000000000000000000815250905090565b60605f80546100fb9061033e565b80601f01602080910402602001604051908101604052809291908181526020018280546101279061033e565b80156101725780601f1061014957610100808354040283529160200191610172565b820191905f5260205f20905b81548152906001019060200180831161015557829003601f168201915b5050505050905090565b5f80fd5b5f80fd5b5f80fd5b5f80fd5b5f80fd5b5f8083601f8401126101a5576101a4610184565b5b8235905067ffffffffffffffff8111156101c2576101c1610188565b5b6020830191508360018202830111156101de576101dd61018c565b5b9250929050565b5f80602083850312156101fb576101fa61017c565b5b5f83013567ffffffffffffffff81111561021857610217610180565b5b61022485828601610190565b92509250509250929050565b5f81519050919050565b5f82825260208201905092915050565b5f5b8381101561026757808201518184015260208101905061024c565b5f8484015250505050565b5f601f19601f8301169050919050565b5f61028c82610230565b610296818561023a565b93506102a681856020860161024a565b6102af81610272565b840191505092915050565b5f6020820190508181035f8301526102d28184610282565b905092915050565b5f82905092915050565b7f4e487b71000000000000000000000000000000000000000000000000000000005f52604160045260245ffd5b7f4e487b71000000000000000000000000000000000000000000000000000000005f52602260045260245ffd5b5f600282049050600182168061035557607f821691505b60208210810361036857610367610311565b5b50919050565b5f819050815f5260205f209050919050565b5f6020601f8301049050919050565b5f82821b905092915050565b5f600883026103ca7fffffffffffffffffffffffffffffffffffffffffffffffffffffffffffffffff8261038f565b6103d4868361038f565b95508019841693508086168417925050509392505050565b5f819050919050565b5f819050919050565b5f61041861041361040e846103ec565b6103f5565b6103ec565b9050919050565b5f819050919050565b610431836103fe565b61044561043d8261041f565b84845461039b565b825550505050565b5f90565b61045961044d565b610464818484610428565b505050565b5b818110156104875761047c5f82610451565b60018101905061046a565b5050565b601f8211156104cc5761049d8161036e565b6104a684610380565b810160208510156104b5578190505b6104c96104c185610380565b830182610469565b50505b505050565b5f82821c905092915050565b5f6104ec5f19846008026104d1565b1980831691505092915050565b5f61050483836104dd565b9150826002028217905092915050565b61051e83836102da565b67ffffffffffffffff811115610537576105366102e4565b5b610541825461033e565b61054c82828561048b565b5f601f831160018114610579575f8415610567578287013590505b61057185826104f9565b8655506105d8565b601f1984166105878661036e565b5f5b828110156105ae57848901358255600182019150602085019450602081019050610589565b868310156105cb57848901356105c7601f8916826104dd565b8355505b6001600288020188555050505b5050505050505056fea264697066735822122059da543123511170ba6443cff4aec24f33e9c41a18daa16cd18dcb2cfa23c79764736f6c63430008180033",
			"opcodes": "PUSH1 0x80 PUSH1 0x40 MSTORE CALLVALUE DUP1 ISZERO PUSH3 0x10 JUMPI PUSH0 DUP1 REVERT JUMPDEST POP PUSH3 0x21 PUSH3 0x37 PUSH1 0x20 SHL PUSH1 0x20 SHR JUMP JUMPDEST PUSH0 SWAP1 DUP2 PUSH3 0x30 SWAP2 SWAP1 PUSH3 0x2D8 JUMP JUMPDEST POP PUSH3 0x3BC JUMP JUMPDEST PUSH1 0x60 PUSH1 0x40 MLOAD DUP1 PUSH1 0x40 ADD PUSH1 0x40 MSTORE DUP1 PUSH1 0xB DUP2 MSTORE PUSH1 0x20 ADD PUSH32 0x48656C6C6F20576F726C64000000000000000000000000000000000000000000 DUP2 MSTORE POP SWAP1 POP SWAP1 JUMP JUMPDEST PUSH0 DUP2 MLOAD SWAP1 POP SWAP2 SWAP1 POP JUMP JUMPDEST PUSH32 0x4E487B7100000000000000000000000000000000000000000000000000000000 PUSH0 MSTORE PUSH1 0x41 PUSH1 0x4 MSTORE PUSH1 0x24 PUSH0 REVERT JUMPDEST PUSH32 0x4E487B7100000000000000000000000000000000000000000000000000000000 PUSH0 MSTORE PUSH1 0x22 PUSH1 0x4 MSTORE PUSH1 0x24 PUSH0 REVERT JUMPDEST PUSH0 PUSH1 0x2 DUP3 DIV SWAP1 POP PUSH1 0x1 DUP3 AND DUP1 PUSH3 0xF0 JUMPI PUSH1 0x7F DUP3 AND SWAP2 POP JUMPDEST PUSH1 0x20 DUP3 LT DUP2 SUB PUSH3 0x106 JUMPI PUSH3 0x105 PUSH3 0xAB JUMP JUMPDEST JUMPDEST POP SWAP2 SWAP1 POP JUMP JUMPDEST PUSH0 DUP2 SWAP1 POP DUP2 PUSH0 MSTORE PUSH1 0x20 PUSH0 KECCAK256 SWAP1 POP SWAP2 SWAP1 POP JUMP JUMPDEST PUSH0 PUSH1 0x20 PUSH1 0x1F DUP4 ADD DIV SWAP1 POP SWAP2 SWAP1 POP JUMP JUMPDEST PUSH0 DUP3 DUP3 SHL SWAP1 POP SWAP3 SWAP2 POP POP JUMP JUMPDEST PUSH0 PUSH1 0x8 DUP4 MUL PUSH3 0x16A PUSH32 0xFFFFFFFFFFFFFFFFFFFFFFFFFFFFFFFFFFFFFFFFFFFFFFFFFFFFFFFFFFFFFFFF DUP3 PUSH3 0x12D JUMP JUMPDEST PUSH3 0x176 DUP7 DUP4 PUSH3 0x12D JUMP JUMPDEST SWAP6 POP DUP1 NOT DUP5 AND SWAP4 POP DUP1 DUP7 AND DUP5 OR SWAP3 POP POP POP SWAP4 SWAP3 POP POP POP JUMP JUMPDEST PUSH0 DUP2 SWAP1 POP SWAP2 SWAP1 POP JUMP JUMPDEST PUSH0 DUP2 SWAP1 POP SWAP2 SWAP1 POP JUMP JUMPDEST PUSH0 PUSH3 0x1C0 PUSH3 0x1BA PUSH3 0x1B4 DUP5 PUSH3 0x18E JUMP JUMPDEST PUSH3 0x197 JUMP JUMPDEST PUSH3 0x18E JUMP JUMPDEST SWAP1 POP SWAP2 SWAP1 POP JUMP JUMPDEST PUSH0 DUP2 SWAP1 POP SWAP2 SWAP1 POP JUMP JUMPDEST PUSH3 0x1DB DUP4 PUSH3 0x1A0 JUMP JUMPDEST PUSH3 0x1F3 PUSH3 0x1EA DUP3 PUSH3 0x1C7 JUMP JUMPDEST DUP5 DUP5 SLOAD PUSH3 0x139 JUMP JUMPDEST DUP3 SSTORE POP POP POP POP JUMP JUMPDEST PUSH0 SWAP1 JUMP JUMPDEST PUSH3 0x209 PUSH3 0x1FB JUMP JUMPDEST PUSH3 0x216 DUP2 DUP5 DUP5 PUSH3 0x1D0 JUMP JUMPDEST POP POP POP JUMP JUMPDEST JUMPDEST DUP2 DUP2 LT ISZERO PUSH3 0x23D JUMPI PUSH3 0x231 PUSH0 DUP3 PUSH3 0x1FF JUMP JUMPDEST PUSH1 0x1 DUP2 ADD SWAP1 POP PUSH3 0x21C JUMP JUMPDEST POP POP JUMP JUMPDEST PUSH1 0x1F DUP3 GT ISZERO PUSH3 0x28C JUMPI PUSH3 0x256 DUP2 PUSH3 0x10C JUMP JUMPDEST PUSH3 0x261 DUP5 PUSH3 0x11E JUMP JUMPDEST DUP2 ADD PUSH1 0x20 DUP6 LT ISZERO PUSH3 0x271 JUMPI DUP2 SWAP1 POP JUMPDEST PUSH3 0x289 PUSH3 0x280 DUP6 PUSH3 0x11E JUMP JUMPDEST DUP4 ADD DUP3 PUSH3 0x21B JUMP JUMPDEST POP POP JUMPDEST POP POP POP JUMP JUMPDEST PUSH0 DUP3 DUP3 SHR SWAP1 POP SWAP3 SWAP2 POP POP JUMP JUMPDEST PUSH0 PUSH3 0x2AE PUSH0 NOT DUP5 PUSH1 0x8 MUL PUSH3 0x291 JUMP JUMPDEST NOT DUP1 DUP4 AND SWAP2 POP POP SWAP3 SWAP2 POP POP JUMP JUMPDEST PUSH0 PUSH3 0x2C8 DUP4 DUP4 PUSH3 0x29D JUMP JUMPDEST SWAP2 POP DUP3 PUSH1 0x2 MUL DUP3 OR SWAP1 POP SWAP3 SWAP2 POP POP JUMP JUMPDEST PUSH3 0x2E3 DUP3 PUSH3 0x74 JUMP JUMPDEST PUSH8 0xFFFFFFFFFFFFFFFF DUP2 GT ISZERO PUSH3 0x2FF JUMPI PUSH3 0x2FE PUSH3 0x7E JUMP JUMPDEST JUMPDEST PUSH3 0x30B DUP3 SLOAD PUSH3 0xD8 JUMP JUMPDEST PUSH3 0x318 DUP3 DUP3 DUP6 PUSH3 0x241 JUMP JUMPDEST PUSH0 PUSH1 0x20 SWAP1 POP PUSH1 0x1F DUP4 GT PUSH1 0x1 DUP2 EQ PUSH3 0x34E JUMPI PUSH0 DUP5 ISZERO PUSH3 0x339 JUMPI DUP3 DUP8 ADD MLOAD SWAP1 POP JUMPDEST PUSH3 0x345 DUP6 DUP3 PUSH3 0x2BB JUMP JUMPDEST DUP7 SSTORE POP PUSH3 0x3B4 JUMP JUMPDEST PUSH1 0x1F NOT DUP5 AND PUSH3 0x35E DUP7 PUSH3 0x10C JUMP JUMPDEST PUSH0 JUMPDEST DUP3 DUP2 LT ISZERO PUSH3 0x387 JUMPI DUP5 DUP10 ADD MLOAD DUP3 SSTORE PUSH1 0x1 DUP3 ADD SWAP2 POP PUSH1 0x20 DUP6 ADD SWAP5 POP PUSH1 0x20 DUP2 ADD SWAP1 POP PUSH3 0x360 JUMP JUMPDEST DUP7 DUP4 LT ISZERO PUSH3 0x3A7 JUMPI DUP5 DUP10 ADD MLOAD PUSH3 0x3A3 PUSH1 0x1F DUP10 AND DUP3 PUSH3 0x29D JUMP JUMPDEST DUP4 SSTORE POP JUMPDEST PUSH1 0x1 PUSH1 0x2 DUP9 MUL ADD DUP9 SSTORE POP POP POP JUMPDEST POP POP POP POP POP POP JUMP JUMPDEST PUSH2 0x617 DUP1 PUSH3 0x3CA PUSH0 CODECOPY PUSH0 RETURN INVALID PUSH1 0x80 PUSH1 0x40 MSTORE CALLVALUE DUP1 ISZERO PUSH2 0xF JUMPI PUSH0 DUP1 REVERT JUMPDEST POP PUSH1 0x4 CALLDATASIZE LT PUSH2 0x3F JUMPI PUSH0 CALLDATALOAD PUSH1 0xE0 SHR DUP1 PUSH4 0x5D3A1F9D EQ PUSH2 0x43 JUMPI DUP1 PUSH4 0xB860426E EQ PUSH2 0x5F JUMPI DUP1 PUSH4 0xC605F76C EQ PUSH2 0x7D JUMPI JUMPDEST PUSH0 DUP1 REVERT JUMPDEST PUSH2 0x5D PUSH1 0x4 DUP1 CALLDATASIZE SUB DUP2 ADD SWAP1 PUSH2 0x58 SWAP2 SWAP1 PUSH2 0x1E5 JUMP JUMPDEST PUSH2 0x9B JUMP JUMPDEST STOP JUMPDEST PUSH2 0x67 PUSH2 0xB0 JUMP JUMPDEST PUSH1 0x40 MLOAD PUSH2 0x74 SWAP2 SWAP1 PUSH2 0x2BA JUMP JUMPDEST PUSH1 0x40 MLOAD DUP1 SWAP2 SUB SWAP1 RETURN JUMPDEST PUSH2 0x85 PUSH2 0xED JUMP JUMPDEST PUSH1 0x40 MLOAD PUSH2 0x92 SWAP2 SWAP1 PUSH2 0x2BA JUMP JUMPDEST PUSH1 0x40 MLOAD DUP1 SWAP2 SUB SWAP1 RETURN JUMPDEST DUP2 DUP2 PUSH0 SWAP2 DUP3 PUSH2 0xAB SWAP3 SWAP2 SWAP1 PUSH2 0x514 JUMP JUMPDEST POP POP POP JUMP JUMPDEST PUSH1 0x60 PUSH1 0x40 MLOAD DUP1 PUSH1 0x40 ADD PUSH1 0x40 MSTORE DUP1 PUSH1 0xB DUP2 MSTORE PUSH1 0x20 ADD PUSH32 0x48656C6C6F20576F726C64000000000000000000000000000000000000000000 DUP2 MSTORE POP SWAP1 POP SWAP1 JUMP JUMPDEST PUSH1 0x60 PUSH0 DUP1 SLOAD PUSH2 0xFB SWAP1 PUSH2 0x33E JUMP JUMPDEST DUP1 PUSH1 0x1F ADD PUSH1 0x20 DUP1 SWAP2 DIV MUL PUSH1 0x20 ADD PUSH1 0x40 MLOAD SWAP1 DUP2 ADD PUSH1 0x40 MSTORE DUP1 SWAP3 SWAP2 SWAP1 DUP2 DUP2 MSTORE PUSH1 0x20 ADD DUP3 DUP1 SLOAD PUSH2 0x127 SWAP1 PUSH2 0x33E JUMP JUMPDEST DUP1 ISZERO PUSH2 0x172 JUMPI DUP1 PUSH1 0x1F LT PUSH2 0x149 JUMPI PUSH2 0x100 DUP1 DUP4 SLOAD DIV MUL DUP4 MSTORE SWAP2 PUSH1 0x20 ADD SWAP2 PUSH2 0x172 JUMP JUMPDEST DUP3 ADD SWAP2 SWAP1 PUSH0 MSTORE PUSH1 0x20 PUSH0 KECCAK256 SWAP1 JUMPDEST DUP2 SLOAD DUP2 MSTORE SWAP1 PUSH1 0x1 ADD SWAP1 PUSH1 0x20 ADD DUP1 DUP4 GT PUSH2 0x155 JUMPI DUP3 SWAP1 SUB PUSH1 0x1F AND DUP3 ADD SWAP2 JUMPDEST POP POP POP POP POP SWAP1 POP SWAP1 JUMP JUMPDEST PUSH0 DUP1 REVERT JUMPDEST PUSH0 DUP1 REVERT JUMPDEST PUSH0 DUP1 REVERT JUMPDEST PUSH0 DUP1 REVERT JUMPDEST PUSH0 DUP1 REVERT JUMPDEST PUSH0 DUP1 DUP4 PUSH1 0x1F DUP5 ADD SLT PUSH2 0x1A5 JUMPI PUSH2 0x1A4 PUSH2 0x184 JUMP JUMPDEST JUMPDEST DUP3 CALLDATALOAD SWAP1 POP PUSH8 0xFFFFFFFFFFFFFFFF DUP2 GT ISZERO PUSH2 0x1C2 JUMPI PUSH2 0x1C1 PUSH2 0x188 JUMP JUMPDEST JUMPDEST PUSH1 0x20 DUP4 ADD SWAP2 POP DUP4 PUSH1 0x1 DUP3 MUL DUP4 ADD GT ISZERO PUSH2 0x1DE JUMPI PUSH2 0x1DD PUSH2 0x18C JUMP JUMPDEST JUMPDEST SWAP3 POP SWAP3 SWAP1 POP JUMP JUMPDEST PUSH0 DUP1 PUSH1 0x20 DUP4 DUP6 SUB SLT ISZERO PUSH2 0x1FB JUMPI PUSH2 0x1FA PUSH2 0x17C JUMP JUMPDEST JUMPDEST PUSH0 DUP4 ADD CALLDATALOAD PUSH8 0xFFFFFFFFFFFFFFFF DUP2 GT ISZERO PUSH2 0x218 JUMPI PUSH2 0x217 PUSH2 0x180 JUMP JUMPDEST JUMPDEST PUSH2 0x224 DUP6 DUP3 DUP7 ADD PUSH2 0x190 JUMP JUMPDEST SWAP3 POP SWAP3 POP POP SWAP3 POP SWAP3 SWAP1 POP JUMP JUMPDEST PUSH0 DUP2 MLOAD SWAP1 POP SWAP2 SWAP1 POP JUMP JUMPDEST PUSH0 DUP3 DUP3 MSTORE PUSH1 0x20 DUP3 ADD SWAP1 POP SWAP3 SWAP2 POP POP JUMP JUMPDEST PUSH0 JUMPDEST DUP4 DUP2 LT ISZERO PUSH2 0x267 JUMPI DUP1 DUP3 ADD MLOAD DUP2 DUP5 ADD MSTORE PUSH1 0x20 DUP2 ADD SWAP1 POP PUSH2 0x24C JUMP JUMPDEST PUSH0 DUP5 DUP5 ADD MSTORE POP POP POP POP JUMP JUMPDEST PUSH0 PUSH1 0x1F NOT PUSH1 0x1F DUP4 ADD AND SWAP1 POP SWAP2 SWAP1 POP JUMP JUMPDEST PUSH0 PUSH2 0x28C DUP3 PUSH2 0x230 JUMP JUMPDEST PUSH2 0x296 DUP2 DUP6 PUSH2 0x23A JUMP JUMPDEST SWAP4 POP PUSH2 0x2A6 DUP2 DUP6 PUSH1 0x20 DUP7 ADD PUSH2 0x24A JUMP JUMPDEST PUSH2 0x2AF DUP2 PUSH2 0x272 JUMP JUMPDEST DUP5 ADD SWAP2 POP POP SWAP3 SWAP2 POP POP JUMP JUMPDEST PUSH0 PUSH1 0x20 DUP3 ADD SWAP1 POP DUP2 DUP2 SUB PUSH0 DUP4 ADD MSTORE PUSH2 0x2D2 DUP2 DUP5 PUSH2 0x282 JUMP JUMPDEST SWAP1 POP SWAP3 SWAP2 POP POP JUMP JUMPDEST PUSH0 DUP3 SWAP1 POP SWAP3 SWAP2 POP POP JUMP JUMPDEST PUSH32 0x4E487B7100000000000000000000000000000000000000000000000000000000 PUSH0 MSTORE PUSH1 0x41 PUSH1 0x4 MSTORE PUSH1 0x24 PUSH0 REVERT JUMPDEST PUSH32 0x4E487B7100000000000000000000000000000000000000000000000000000000 PUSH0 MSTORE PUSH1 0x22 PUSH1 0x4 MSTORE PUSH1 0x24 PUSH0 REVERT JUMPDEST PUSH0 PUSH1 0x2 DUP3 DIV SWAP1 POP PUSH1 0x1 DUP3 AND DUP1 PUSH2 0x355 JUMPI PUSH1 0x7F DUP3 AND SWAP2 POP JUMPDEST PUSH1 0x20 DUP3 LT DUP2 SUB PUSH2 0x368 JUMPI PUSH2 0x367 PUSH2 0x311 JUMP JUMPDEST JUMPDEST POP SWAP2 SWAP1 POP JUMP JUMPDEST PUSH0 DUP2 SWAP1 POP DUP2 PUSH0 MSTORE PUSH1 0x20 PUSH0 KECCAK256 SWAP1 POP SWAP2 SWAP1 POP JUMP JUMPDEST PUSH0 PUSH1 0x20 PUSH1 0x1F DUP4 ADD DIV SWAP1 POP SWAP2 SWAP1 POP JUMP JUMPDEST PUSH0 DUP3 DUP3 SHL SWAP1 POP SWAP3 SWAP2 POP POP JUMP JUMPDEST PUSH0 PUSH1 0x8 DUP4 MUL PUSH2 0x3CA PUSH32 0xFFFFFFFFFFFFFFFFFFFFFFFFFFFFFFFFFFFFFFFFFFFFFFFFFFFFFFFFFFFFFFFF DUP3 PUSH2 0x38F JUMP JUMPDEST PUSH2 0x3D4 DUP7 DUP4 PUSH2 0x38F JUMP JUMPDEST SWAP6 POP DUP1 NOT DUP5 AND SWAP4 POP DUP1 DUP7 AND DUP5 OR SWAP3 POP POP POP SWAP4 SWAP3 POP POP POP JUMP JUMPDEST PUSH0 DUP2 SWAP1 POP SWAP2 SWAP1 POP JUMP JUMPDEST PUSH0 DUP2 SWAP1 POP SWAP2 SWAP1 POP JUMP JUMPDEST PUSH0 PUSH2 0x418 PUSH2 0x413 PUSH2 0x40E DUP5 PUSH2 0x3EC JUMP JUMPDEST PUSH2 0x3F5 JUMP JUMPDEST PUSH2 0x3EC JUMP JUMPDEST SWAP1 POP SWAP2 SWAP1 POP JUMP JUMPDEST PUSH0 DUP2 SWAP1 POP SWAP2 SWAP1 POP JUMP JUMPDEST PUSH2 0x431 DUP4 PUSH2 0x3FE JUMP JUMPDEST PUSH2 0x445 PUSH2 0x43D DUP3 PUSH2 0x41F JUMP JUMPDEST DUP5 DUP5 SLOAD PUSH2 0x39B JUMP JUMPDEST DUP3 SSTORE POP POP POP POP JUMP JUMPDEST PUSH0 SWAP1 JUMP JUMPDEST PUSH2 0x459 PUSH2 0x44D JUMP JUMPDEST PUSH2 0x464 DUP2 DUP5 DUP5 PUSH2 0x428 JUMP JUMPDEST POP POP POP JUMP JUMPDEST JUMPDEST DUP2 DUP2 LT ISZERO PUSH2 0x487 JUMPI PUSH2 0x47C PUSH0 DUP3 PUSH2 0x451 JUMP JUMPDEST PUSH1 0x1 DUP2 ADD SWAP1 POP PUSH2 0x46A JUMP JUMPDEST POP POP JUMP JUMPDEST PUSH1 0x1F DUP3 GT ISZERO PUSH2 0x4CC JUMPI PUSH2 0x49D DUP2 PUSH2 0x36E JUMP JUMPDEST PUSH2 0x4A6 DUP5 PUSH2 0x380 JUMP JUMPDEST DUP2 ADD PUSH1 0x20 DUP6 LT ISZERO PUSH2 0x4B5 JUMPI DUP2 SWAP1 POP JUMPDEST PUSH2 0x4C9 PUSH2 0x4C1 DUP6 PUSH2 0x380 JUMP JUMPDEST DUP4 ADD DUP3 PUSH2 0x469 JUMP JUMPDEST POP POP JUMPDEST POP POP POP JUMP JUMPDEST PUSH0 DUP3 DUP3 SHR SWAP1 POP SWAP3 SWAP2 POP POP JUMP JUMPDEST PUSH0 PUSH2 0x4EC PUSH0 NOT DUP5 PUSH1 0x8 MUL PUSH2 0x4D1 JUMP JUMPDEST NOT DUP1 DUP4 AND SWAP2 POP POP SWAP3 SWAP2 POP POP JUMP JUMPDEST PUSH0 PUSH2 0x504 DUP4 DUP4 PUSH2 0x4DD JUMP JUMPDEST SWAP2 POP DUP3 PUSH1 0x2 MUL DUP3 OR SWAP1 POP SWAP3 SWAP2 POP POP JUMP JUMPDEST PUSH2 0x51E DUP4 DUP4 PUSH2 0x2DA JUMP JUMPDEST PUSH8 0xFFFFFFFFFFFFFFFF DUP2 GT ISZERO PUSH2 0x537 JUMPI PUSH2 0x536 PUSH2 0x2E4 JUMP JUMPDEST JUMPDEST PUSH2 0x541 DUP3 SLOAD PUSH2 0x33E JUMP JUMPDEST PUSH2 0x54C DUP3 DUP3 DUP6 PUSH2 0x48B JUMP JUMPDEST PUSH0 PUSH1 0x1F DUP4 GT PUSH1 0x1 DUP2 EQ PUSH2 0x579 JUMPI PUSH0 DUP5 ISZERO PUSH2 0x567 JUMPI DUP3 DUP8 ADD CALLDATALOAD SWAP1 POP JUMPDEST PUSH2 0x571 DUP6 DUP3 PUSH2 0x4F9 JUMP JUMPDEST DUP7 SSTORE POP PUSH2 0x5D8 JUMP JUMPDEST PUSH1 0x1F NOT DUP5 AND PUSH2 0x587 DUP7 PUSH2 0x36E JUMP JUMPDEST PUSH0 JUMPDEST DUP3 DUP2 LT ISZERO PUSH2 0x5AE JUMPI DUP5 DUP10 ADD CALLDATALOAD DUP3 SSTORE PUSH1 0x1 DUP3 ADD SWAP2 POP PUSH1 0x20 DUP6 ADD SWAP5 POP PUSH1 0x20 DUP2 ADD SWAP1 POP PUSH2 0x589 JUMP JUMPDEST DUP7 DUP4 LT ISZERO PUSH2 0x5CB JUMPI DUP5 DUP10 ADD CALLDATALOAD PUSH2 0x5C7 PUSH1 0x1F DUP10 AND DUP3 PUSH2 0x4DD JUMP JUMPDEST DUP4 SSTORE POP JUMPDEST PUSH1 0x1 PUSH1 0x2 DUP9 MUL ADD DUP9 SSTORE POP POP POP JUMPDEST POP POP POP POP POP POP POP JUMP INVALID LOG2 PUSH5 0x6970667358 0x22 SLT KECCAK256 MSIZE 0xDA SLOAD BALANCE 0x23 MLOAD GT PUSH17 0xBA6443CFF4AEC24F33E9C41A18DAA16CD1 DUP14 0xCB 0x2C STATICCALL 0x23 0xC7 SWAP8 PUSH5 0x736F6C6343 STOP ADDMOD XOR STOP CALLER "
		},
		"gasEstimates": {
			"creation": {
				"codeDepositCost": "311800",
				"executionCost": "infinite",
				"totalCost": "infinite"
			},
			"external": {
				"helloWorld()": "infinite",
				"initialText()": "infinite",
				"setText(string)": "infinite"
			}
		},
		"methodIdentifiers": {
			"helloWorld()": "c605f76c",
			"initialText()": "b860426e",
			"setText(string)": "5d3a1f9d"
		}
	},
	"abi": [
		{
			"inputs": [],
			"name": "helloWorld",
			"outputs": [
				{
					"internalType": "string",
					"name": "",
					"type": "string"
				}
			],
			"stateMutability": "view",
			"type": "function"
		},
		{
			"inputs": [],
			"name": "initialText",
			"outputs": [
				{
					"internalType": "string",
					"name": "",
					"type": "string"
				}
			],
			"stateMutability": "pure",
			"type": "function"
		},
		{
			"inputs": [
				{
					"internalType": "string",
					"name": "newText",
					"type": "string"
				}
			],
			"name": "setText",
			"outputs": [],
			"stateMutability": "nonpayable",
			"type": "function"
		}
	]
}